{
  "_format": "hh-sol-artifact-1",
  "contractName": "OTCEscrow",
  "sourceName": "contracts/OCT_Escrow.sol",
  "abi": [
    {
      "anonymous": false,
      "inputs": [
        {
          "indexed": true,
          "internalType": "address",
          "name": "depositor",
          "type": "address"
        },
        {
          "indexed": false,
          "internalType": "uint256",
          "name": "amount",
          "type": "uint256"
        },
        {
          "indexed": false,
          "internalType": "uint256",
          "name": "timestamp",
          "type": "uint256"
        }
      ],
      "name": "Deposited",
      "type": "event"
    },
    {
      "anonymous": false,
      "inputs": [
        {
          "indexed": true,
          "internalType": "address",
          "name": "depositor",
          "type": "address"
        },
        {
          "indexed": true,
          "internalType": "address",
          "name": "whitelisted",
          "type": "address"
        },
        {
          "indexed": false,
          "internalType": "uint256",
          "name": "timestamp",
          "type": "uint256"
        }
      ],
      "name": "Whitelisted",
      "type": "event"
    },
    {
      "anonymous": false,
      "inputs": [
        {
          "indexed": true,
          "internalType": "address",
          "name": "whitelisted",
          "type": "address"
        },
        {
          "indexed": false,
          "internalType": "uint256",
          "name": "amount",
          "type": "uint256"
        },
        {
          "indexed": false,
          "internalType": "uint256",
          "name": "timestamp",
          "type": "uint256"
        }
      ],
      "name": "Withdrawn",
      "type": "event"
    },
    {
      "inputs": [
        {
          "internalType": "address",
          "name": "_whitelisted",
          "type": "address"
        }
      ],
      "name": "deposit",
      "outputs": [],
      "stateMutability": "payable",
      "type": "function"
    },
    {
      "inputs": [
        {
          "internalType": "address",
          "name": "_user",
          "type": "address"
        }
      ],
      "name": "getTransactionHistory",
      "outputs": [
        {
          "components": [
            {
              "internalType": "address",
              "name": "depositor",
              "type": "address"
            },
            {
              "internalType": "address",
              "name": "whitelisted",
              "type": "address"
            },
            {
              "internalType": "uint256",
              "name": "amount",
              "type": "uint256"
            },
            {
              "internalType": "bool",
              "name": "isWithdrawn",
              "type": "bool"
            },
            {
              "internalType": "uint256",
              "name": "timestamp",
              "type": "uint256"
            }
          ],
          "internalType": "struct OTCEscrow.Transaction[]",
          "name": "",
          "type": "tuple[]"
        }
      ],
      "stateMutability": "view",
      "type": "function"
    },
    {
      "inputs": [
        {
          "internalType": "address",
          "name": "_depositor",
          "type": "address"
        }
      ],
      "name": "getWhitelisted",
      "outputs": [
        {
          "internalType": "address",
          "name": "",
          "type": "address"
        }
      ],
      "stateMutability": "view",
      "type": "function"
    },
    {
      "inputs": [
        {
          "internalType": "address",
          "name": "",
          "type": "address"
        },
        {
          "internalType": "uint256",
          "name": "",
          "type": "uint256"
        }
      ],
      "name": "transactionHistory",
      "outputs": [
        {
          "internalType": "address",
          "name": "depositor",
          "type": "address"
        },
        {
          "internalType": "address",
          "name": "whitelisted",
          "type": "address"
        },
        {
          "internalType": "uint256",
          "name": "amount",
          "type": "uint256"
        },
        {
          "internalType": "bool",
          "name": "isWithdrawn",
          "type": "bool"
        },
        {
          "internalType": "uint256",
          "name": "timestamp",
          "type": "uint256"
        }
      ],
      "stateMutability": "view",
      "type": "function"
    },
    {
      "inputs": [
        {
          "internalType": "address",
          "name": "_depositor",
          "type": "address"
        }
      ],
      "name": "withdraw",
      "outputs": [],
      "stateMutability": "nonpayable",
      "type": "function"
    }
  ],
  "bytecode": "0x608060405234801561001057600080fd5b50610f84806100206000396000f3fe60806040526004361061004a5760003560e01c80633f18064a1461004f57806351cff8d91461008c578063d20cf0e8146100b5578063e3abc2bc146100f2578063f340fa0114610133575b600080fd5b34801561005b57600080fd5b5061007660048036038101906100719190610a4b565b61014f565b6040516100839190610a87565b60405180910390f35b34801561009857600080fd5b506100b360048036038101906100ae9190610a4b565b61030c565b005b3480156100c157600080fd5b506100dc60048036038101906100d79190610a4b565b61054e565b6040516100e99190610bfc565b60405180910390f35b3480156100fe57600080fd5b5061011960048036038101906101149190610c4a565b6106c6565b60405161012a959493929190610ca8565b60405180910390f35b61014d60048036038101906101489190610a4b565b610766565b005b6000806000808473ffffffffffffffffffffffffffffffffffffffff1673ffffffffffffffffffffffffffffffffffffffff168152602001908152602001600020805480602002602001604051908101604052809291908181526020016000905b828210156102bd57838290600052602060002090600502016040518060a00160405290816000820160009054906101000a900473ffffffffffffffffffffffffffffffffffffffff1673ffffffffffffffffffffffffffffffffffffffff1673ffffffffffffffffffffffffffffffffffffffff1681526020016001820160009054906101000a900473ffffffffffffffffffffffffffffffffffffffff1673ffffffffffffffffffffffffffffffffffffffff1673ffffffffffffffffffffffffffffffffffffffff168152602001600282015481526020016003820160009054906101000a900460ff16151515158152602001600482015481525050815260200190600101906101b0565b5050505090506000815111156103015780600182516102dc9190610d2a565b815181106102ed576102ec610d5e565b5b602002602001015160200151915050610307565b60009150505b919050565b806103168161014f565b73ffffffffffffffffffffffffffffffffffffffff163373ffffffffffffffffffffffffffffffffffffffff1614610383576040517f08c379a000000000000000000000000000000000000000000000000000000000815260040161037a90610e10565b60405180910390fd5b60008060008473ffffffffffffffffffffffffffffffffffffffff1673ffffffffffffffffffffffffffffffffffffffff168152602001908152602001600020905060005b81805490508110156105485760008282815481106103e9576103e8610d5e565b5b90600052602060002090600502019050600015158160030160009054906101000a900460ff16151514801561046d57503373ffffffffffffffffffffffffffffffffffffffff168160010160009054906101000a900473ffffffffffffffffffffffffffffffffffffffff1673ffffffffffffffffffffffffffffffffffffffff16145b156105345760018160030160006101000a81548160ff0219169083151502179055503373ffffffffffffffffffffffffffffffffffffffff166108fc82600201549081150290604051600060405180830381858888f193505050501580156104d9573d6000803e3d6000fd5b503373ffffffffffffffffffffffffffffffffffffffff167f92ccf450a286a957af52509bc1c9939d1a6a481783e142e41e2499f0bb66ebc6826002015442604051610526929190610e30565b60405180910390a250610548565b50808061054090610e59565b9150506103c8565b50505050565b60606000808373ffffffffffffffffffffffffffffffffffffffff1673ffffffffffffffffffffffffffffffffffffffff168152602001908152602001600020805480602002602001604051908101604052809291908181526020016000905b828210156106bb57838290600052602060002090600502016040518060a00160405290816000820160009054906101000a900473ffffffffffffffffffffffffffffffffffffffff1673ffffffffffffffffffffffffffffffffffffffff1673ffffffffffffffffffffffffffffffffffffffff1681526020016001820160009054906101000a900473ffffffffffffffffffffffffffffffffffffffff1673ffffffffffffffffffffffffffffffffffffffff1673ffffffffffffffffffffffffffffffffffffffff168152602001600282015481526020016003820160009054906101000a900460ff16151515158152602001600482015481525050815260200190600101906105ae565b505050509050919050565b600060205281600052604060002081815481106106e257600080fd5b9060005260206000209060050201600091509150508060000160009054906101000a900473ffffffffffffffffffffffffffffffffffffffff16908060010160009054906101000a900473ffffffffffffffffffffffffffffffffffffffff16908060020154908060030160009054906101000a900460ff16908060040154905085565b600034116107a9576040517f08c379a00000000000000000000000000000000000000000000000000000000081526004016107a090610f13565b60405180910390fd5b60006040518060a001604052803373ffffffffffffffffffffffffffffffffffffffff1681526020018373ffffffffffffffffffffffffffffffffffffffff1681526020013481526020016000151581526020014281525090506000803373ffffffffffffffffffffffffffffffffffffffff1673ffffffffffffffffffffffffffffffffffffffff16815260200190815260200160002081908060018154018082558091505060019003906000526020600020906005020160009091909190915060008201518160000160006101000a81548173ffffffffffffffffffffffffffffffffffffffff021916908373ffffffffffffffffffffffffffffffffffffffff16021790555060208201518160010160006101000a81548173ffffffffffffffffffffffffffffffffffffffff021916908373ffffffffffffffffffffffffffffffffffffffff1602179055506040820151816002015560608201518160030160006101000a81548160ff0219169083151502179055506080820151816004015550503373ffffffffffffffffffffffffffffffffffffffff167f73a19dd210f1a7f902193214c0ee91dd35ee5b4d920cba8d519eca65a7b488ca3442604051610977929190610e30565b60405180910390a28173ffffffffffffffffffffffffffffffffffffffff163373ffffffffffffffffffffffffffffffffffffffff167fb96c2824efcf459ce8863cde7ab3e445ed6be746d80675e06f8a3a90f2378b91426040516109dc9190610f33565b60405180910390a35050565b600080fd5b600073ffffffffffffffffffffffffffffffffffffffff82169050919050565b6000610a18826109ed565b9050919050565b610a2881610a0d565b8114610a3357600080fd5b50565b600081359050610a4581610a1f565b92915050565b600060208284031215610a6157610a606109e8565b5b6000610a6f84828501610a36565b91505092915050565b610a8181610a0d565b82525050565b6000602082019050610a9c6000830184610a78565b92915050565b600081519050919050565b600082825260208201905092915050565b6000819050602082019050919050565b610ad781610a0d565b82525050565b6000819050919050565b610af081610add565b82525050565b60008115159050919050565b610b0b81610af6565b82525050565b60a082016000820151610b276000850182610ace565b506020820151610b3a6020850182610ace565b506040820151610b4d6040850182610ae7565b506060820151610b606060850182610b02565b506080820151610b736080850182610ae7565b50505050565b6000610b858383610b11565b60a08301905092915050565b6000602082019050919050565b6000610ba982610aa2565b610bb38185610aad565b9350610bbe83610abe565b8060005b83811015610bef578151610bd68882610b79565b9750610be183610b91565b925050600181019050610bc2565b5085935050505092915050565b60006020820190508181036000830152610c168184610b9e565b905092915050565b610c2781610add565b8114610c3257600080fd5b50565b600081359050610c4481610c1e565b92915050565b60008060408385031215610c6157610c606109e8565b5b6000610c6f85828601610a36565b9250506020610c8085828601610c35565b9150509250929050565b610c9381610add565b82525050565b610ca281610af6565b82525050565b600060a082019050610cbd6000830188610a78565b610cca6020830187610a78565b610cd76040830186610c8a565b610ce46060830185610c99565b610cf16080830184610c8a565b9695505050505050565b7f4e487b7100000000000000000000000000000000000000000000000000000000600052601160045260246000fd5b6000610d3582610add565b9150610d4083610add565b9250828203905081811115610d5857610d57610cfb565b5b92915050565b7f4e487b7100000000000000000000000000000000000000000000000000000000600052603260045260246000fd5b600082825260208201905092915050565b7f596f7520617265206e6f74207468652077686974656c6973746564206164647260008201527f6573732e00000000000000000000000000000000000000000000000000000000602082015250565b6000610dfa602483610d8d565b9150610e0582610d9e565b604082019050919050565b60006020820190508181036000830152610e2981610ded565b9050919050565b6000604082019050610e456000830185610c8a565b610e526020830184610c8a565b9392505050565b6000610e6482610add565b91507fffffffffffffffffffffffffffffffffffffffffffffffffffffffffffffffff8203610e9657610e95610cfb565b5b600182019050919050565b7f4465706f73697420616d6f756e742073686f756c64206265206772656174657260008201527f207468616e203000000000000000000000000000000000000000000000000000602082015250565b6000610efd602783610d8d565b9150610f0882610ea1565b604082019050919050565b60006020820190508181036000830152610f2c81610ef0565b9050919050565b6000602082019050610f486000830184610c8a565b9291505056fea26469706673582212201cf04a889f168071fea46837535d9dd8c00c991821452515370450f86a0eb30664736f6c63430008140033",
  "linkReferences": {},
  "deployedLinkReferences": {}
}